{
  "contractName": "Election",
  "abi": [
    {
      "inputs": [],
      "payable": false,
      "stateMutability": "nonpayable",
      "type": "constructor"
    },
    {
      "anonymous": false,
      "inputs": [
        {
          "indexed": false,
          "internalType": "string",
          "name": "candidateName",
          "type": "string"
        },
        {
          "indexed": false,
          "internalType": "uint256",
          "name": "voteCount",
          "type": "uint256"
        }
      ],
      "name": "ElectionResult",
      "type": "event"
    },
    {
      "payable": true,
      "stateMutability": "payable",
      "type": "fallback"
    },
    {
      "constant": true,
      "inputs": [
        {
          "internalType": "uint256",
          "name": "",
          "type": "uint256"
        }
      ],
      "name": "candidates",
      "outputs": [
        {
          "internalType": "string",
          "name": "name",
          "type": "string"
        },
        {
          "internalType": "string",
          "name": "party",
          "type": "string"
        },
        {
          "internalType": "uint256",
          "name": "voteCount",
          "type": "uint256"
        }
      ],
      "payable": false,
      "stateMutability": "view",
      "type": "function"
    },
    {
      "constant": true,
      "inputs": [],
      "name": "owner",
      "outputs": [
        {
          "internalType": "address payable",
          "name": "",
          "type": "address"
        }
      ],
      "payable": false,
      "stateMutability": "view",
      "type": "function"
    },
    {
      "constant": true,
      "inputs": [
        {
          "internalType": "address",
          "name": "",
          "type": "address"
        }
      ],
      "name": "voters",
      "outputs": [
        {
          "internalType": "bool",
          "name": "voted",
          "type": "bool"
        },
        {
          "internalType": "uint256",
          "name": "weight",
          "type": "uint256"
        }
      ],
      "payable": false,
      "stateMutability": "view",
      "type": "function"
    },
    {
      "constant": true,
      "inputs": [],
      "name": "candidateCount",
      "outputs": [
        {
          "internalType": "uint256",
          "name": "",
          "type": "uint256"
        }
      ],
      "payable": false,
      "stateMutability": "view",
      "type": "function"
    },
    {
      "constant": false,
      "inputs": [
        {
          "internalType": "address payable",
          "name": "voter",
          "type": "address"
        }
      ],
      "name": "authorize",
      "outputs": [],
      "payable": false,
      "stateMutability": "nonpayable",
      "type": "function"
    },
    {
      "constant": false,
      "inputs": [
        {
          "internalType": "uint256",
          "name": "voteIndex",
          "type": "uint256"
        }
      ],
      "name": "vote",
      "outputs": [],
      "payable": false,
      "stateMutability": "nonpayable",
      "type": "function"
    },
    {
      "constant": false,
      "inputs": [],
      "name": "end",
      "outputs": [],
      "payable": false,
      "stateMutability": "nonpayable",
      "type": "function"
    },
    {
      "constant": true,
      "inputs": [],
      "name": "getBalance",
      "outputs": [
        {
          "internalType": "uint256",
          "name": "",
          "type": "uint256"
        }
      ],
      "payable": false,
      "stateMutability": "view",
      "type": "function"
    }
  ],
  "bytecode": "0x608060405234801561001057600080fd5b50336000806101000a81548173ffffffffffffffffffffffffffffffffffffffff021916908373ffffffffffffffffffffffffffffffffffffffff160217905550600260405180606001604052806040518060400160405280600981526020017f54686520466c617368000000000000000000000000000000000000000000000081525081526020016040518060400160405280600981526020017f444320436f6d69637300000000000000000000000000000000000000000000008152508152602001600081525090806001815401808255809150509060018203906000526020600020906003020160009091929091909150600082015181600001908051906020019061012092919061024a565b50602082015181600101908051906020019061013d92919061024a565b5060408201518160020155505050600260405180606001604052806040518060400160405280600881526020017f4176656e6765727300000000000000000000000000000000000000000000000081525081526020016040518060400160405280601981526020017f4d617276656c2043696e656d6174696320556e697665727365000000000000008152508152602001600081525090806001815401808255809150509060018203906000526020600020906003020160009091929091909150600082015181600001908051906020019061021a92919061024a565b50602082015181600101908051906020019061023792919061024a565b50604082015181600201555050506102ef565b828054600181600116156101000203166002900490600052602060002090601f016020900481019282601f1061028b57805160ff19168380011785556102b9565b828001600101855582156102b9579182015b828111156102b857825182559160200191906001019061029d565b5b5090506102c691906102ca565b5090565b6102ec91905b808211156102e85760008160009055506001016102d0565b5090565b90565b610bf7806102fe6000396000f3fe60806040526004361061007b5760003560e01c8063a3ec138d1161004e578063a3ec138d14610261578063a9a981a3146102d1578063b6a5d7de146102fc578063efbe1c1c1461034d5761007b565b80630121b93f1461007d57806312065fe0146100b85780633477ee2e146100e35780638da5cb5b1461020a575b005b34801561008957600080fd5b506100b6600480360360208110156100a057600080fd5b8101908080359060200190929190505050610364565b005b3480156100c457600080fd5b506100cd6105a9565b6040518082815260200191505060405180910390f35b3480156100ef57600080fd5b5061011c6004803603602081101561010657600080fd5b81019080803590602001909291905050506105c8565b604051808060200180602001848152602001838103835286818151815260200191508051906020019080838360005b8381101561016657808201518184015260208101905061014b565b50505050905090810190601f1680156101935780820380516001836020036101000a031916815260200191505b50838103825285818151815260200191508051906020019080838360005b838110156101cc5780820151818401526020810190506101b1565b50505050905090810190601f1680156101f95780820380516001836020036101000a031916815260200191505b509550505050505060405180910390f35b34801561021657600080fd5b5061021f61072f565b604051808273ffffffffffffffffffffffffffffffffffffffff1673ffffffffffffffffffffffffffffffffffffffff16815260200191505060405180910390f35b34801561026d57600080fd5b506102b06004803603602081101561028457600080fd5b81019080803573ffffffffffffffffffffffffffffffffffffffff169060200190929190505050610754565b60405180831515151581526020018281526020019250505060405180910390f35b3480156102dd57600080fd5b506102e6610785565b6040518082815260200191505060405180910390f35b34801561030857600080fd5b5061034b6004803603602081101561031f57600080fd5b81019080803573ffffffffffffffffffffffffffffffffffffffff169060200190929190505050610792565b005b34801561035957600080fd5b506103626109a4565b005b600160003373ffffffffffffffffffffffffffffffffffffffff1673ffffffffffffffffffffffffffffffffffffffff16815260200190815260200160002060000160009054906101000a900460ff1615610427576040517f08c379a000000000000000000000000000000000000000000000000000000000815260040180806020018281038252600d8152602001807f416c726561647920766f7465640000000000000000000000000000000000000081525060200191505060405180910390fd5b60018060003373ffffffffffffffffffffffffffffffffffffffff1673ffffffffffffffffffffffffffffffffffffffff16815260200190815260200160002060010154146104de576040517f08c379a000000000000000000000000000000000000000000000000000000000815260040180806020018281038252601f8152602001807f556e617574686572697a656420566f74657273206e6f7420416c6c6f7765640081525060200191505060405180910390fd5b60018060003373ffffffffffffffffffffffffffffffffffffffff1673ffffffffffffffffffffffffffffffffffffffff16815260200190815260200160002060000160006101000a81548160ff021916908315150217905550600160003373ffffffffffffffffffffffffffffffffffffffff1673ffffffffffffffffffffffffffffffffffffffff168152602001908152602001600020600101546002828154811061058857fe5b90600052602060002090600302016002016000828254019250508190555050565b60003073ffffffffffffffffffffffffffffffffffffffff1631905090565b600281815481106105d557fe5b9060005260206000209060030201600091509050806000018054600181600116156101000203166002900480601f0160208091040260200160405190810160405280929190818152602001828054600181600116156101000203166002900480156106815780601f1061065657610100808354040283529160200191610681565b820191906000526020600020905b81548152906001019060200180831161066457829003601f168201915b505050505090806001018054600181600116156101000203166002900480601f01602080910402602001604051908101604052809291908181526020018280546001816001161561010002031660029004801561071f5780601f106106f45761010080835404028352916020019161071f565b820191906000526020600020905b81548152906001019060200180831161070257829003601f168201915b5050505050908060020154905083565b6000809054906101000a900473ffffffffffffffffffffffffffffffffffffffff1681565b60016020528060005260406000206000915090508060000160009054906101000a900460ff16908060010154905082565b6000600280549050905090565b6000809054906101000a900473ffffffffffffffffffffffffffffffffffffffff1673ffffffffffffffffffffffffffffffffffffffff163373ffffffffffffffffffffffffffffffffffffffff1614610854576040517f08c379a000000000000000000000000000000000000000000000000000000000815260040180806020018281038252600e8152602001807f4f6e6c7920666f722061646d696e00000000000000000000000000000000000081525060200191505060405180910390fd5b6000600160008373ffffffffffffffffffffffffffffffffffffffff1673ffffffffffffffffffffffffffffffffffffffff168152602001908152602001600020600101541461090c576040517f08c379a00000000000000000000000000000000000000000000000000000000081526004018080602001828103825260128152602001807f416c726561647920417574686572697a6564000000000000000000000000000081525060200191505060405180910390fd5b8073ffffffffffffffffffffffffffffffffffffffff166108fc6607d0e36a8180009081150290604051600060405180830381858888f19350505050158015610959573d6000803e3d6000fd5b5060018060008373ffffffffffffffffffffffffffffffffffffffff1673ffffffffffffffffffffffffffffffffffffffff1681526020019081526020016000206001018190555050565b6000809054906101000a900473ffffffffffffffffffffffffffffffffffffffff1673ffffffffffffffffffffffffffffffffffffffff163373ffffffffffffffffffffffffffffffffffffffff1614610a49576040517f08c379a0000000000000000000000000000000000000000000000000000000008152600401808060200182810382526022815260200180610ba16022913960400191505060405180910390fd5b60008090505b600280549050811015610b65577f156b5ffaa1a96772b4d324b6a0492ba5c51abe8a2818c38a0d409faddb63578c60028281548110610a8a57fe5b906000526020600020906003020160000160028381548110610aa857fe5b9060005260206000209060030201600201546040518080602001838152602001828103825284818154600181600116156101000203166002900481526020019150805460018160011615610100020316600290048015610b495780601f10610b1e57610100808354040283529160200191610b49565b820191906000526020600020905b815481529060010190602001808311610b2c57829003601f168201915b5050935050505060405180910390a18080600101915050610a4f565b506000809054906101000a900473ffffffffffffffffffffffffffffffffffffffff1673ffffffffffffffffffffffffffffffffffffffff16fffe4f6e6c79206f776e65722063616e2064697374726f792074686520636f6e74616374a265627a7a7231582086b2cfbb710fc2f742e2c6341566a0b0a0a07b02c4fec651ec584ed5e3d8853c64736f6c634300050c0032",
  "source": "pragma solidity ^0.5.0;\n\ncontract Election {\n    struct Candidate {\n        string name;\n        string party;\n        uint voteCount;\n    }\n    struct Voter {\n        bool voted;\n        uint weight;\n    }\n    address payable public owner;\n    mapping(address => Voter) public voters;\n    Candidate[] public candidates;\n    event ElectionResult(string candidateName, uint voteCount);\n    constructor() public {\n        owner = msg.sender;\n        candidates.push(Candidate(\"The Flash\", \"DC Comics\", 0));\n        candidates.push(Candidate(\"Avengers\", \"Marvel Cinematic Universe\", 0));\n    }\n    function candidateCount() public view returns(uint){\n        return candidates.length;\n    }\n    function authorize(address payable voter) public {\n        require(msg.sender == owner, \"Only for admin\");\n        require(voters[voter].weight == 0, \"Already Autherized\");\n        voter.transfer(2200000000000000);\n        voters[voter].weight = 1;\n    }\n    function vote(uint voteIndex) public {\n        require(!voters[msg.sender].voted, \"Already voted\");\n        require(voters[msg.sender].weight == 1,\"Unautherized Voters not Allowed\");\n        voters[msg.sender].voted = true;\n        candidates[voteIndex].voteCount += voters[msg.sender].weight;\n    }\n    function end() public {\n        require(msg.sender == owner, \"Only owner can distroy the contact\");\n        for(uint i = 0;i<candidates.length;i++) {\n            emit ElectionResult(candidates[i].name, candidates[i].voteCount);\n        }\n        selfdestruct(owner);\n    }\n    function getBalance() public view returns(uint256) {\n        return address(this).balance;\n    }\n    function() external payable {\n\n    }\n}",
  "sourcePath": "/home/blacksilver/Lab/project/BlockChainVoting/contracts/Election.sol",
  "compiler": {
    "name": "solc",
    "version": "0.5.12+commit.7709ece9.Emscripten.clang"
  },
  "schemaVersion": "3.0.20",
  "updatedAt": "2019-12-29T06:02:26.545Z",
  "networkType": "ethereum",
  "devdoc": {
    "methods": {}
  },
  "userdoc": {
    "methods": {}
  }
}